:060000000201CF020329FA
:03000B0002032FBE
:0300130002032BBA
:03001B00020331AC
:0300230002034C89
:03002B000203339A
:0300330002033590
:03003B0002034D70
:03004300020100B7
:03004B0002032A83
:03005300020100A7
:03005B0002032C71
:0300630002032D68
:200068000000E2FBEAF2802C0000E0FBEAF08024E6B50202EBF62200E2B50202EBF222007E
:20008800E0B50202EBF02230F6E0A88220F5D3EAC6F582228B822230F6E6A88220F5D9808E
:0100A800CF88
:030228000200A928
:0300A9000202351B
:20022B0090E6A07401F07481F02290E6007410F090E60B7403F0414390E6047480F0414BF1
:20024B0090E61274A0F0415390E61474E0F0415B90E6A3E4F090E6A5F090E611E053E07FF8
:20026B00F0416E90E610E053E07FF0417890E613E053E07FF0418290E615E053E07FF041F7
:20028B008C90E6047482F0419490E6497482F0419C90E6497482F041A490E6497482F041A0
:2002AB00AC90E6497482F041B490E6047486F041BC90E604E4F041C3758201120351E5AA4D
:2002CB0020E0FBE5AA20E5F690E690E0FF7E0090E691E07D004206ED420775AF077C007D25
:2002EB00F08D9A759B007C007DF88D9D759E007C007D00C3EC9EED9F500F90E67BE090E626
:1E030B007CF00CBC00ED0D80EA90E698EFF0611B90E699EEF0612290E691E4F080A068
:200C3C0012010002FF000040B40404100000010200010904000002FF000000070502020056
:200C5C000200070586020002000902000001010080324E0C570C5E0C0000650C890C9B0C4D
:200C7C003C0C000001760C02780C0000004658322042756C6B204C6F6F706261636B0046F8
:190C9C0058322042756C6B204C6F6F706261636B204578616D706C6500D0
:0601FE00E478FFF6D8FDD5
:0103290032A1
:01032A0032A0
:01032B00329F
:2001DC007900E94400601B7A00900CB9780075923EE493F2A308B800020592D9F4DAF275E3
:0201FC0092FF70
:01032C00329E
:01032D00329D
:030100000203FAFD
:0301040002034EA5
:0301080002033BB4
:03010C0002034AA1
:0301100002035097
:03011400020B05D6
:03011800020338A7
:03011C000201B825
:0301200002034295
:03012400020B03C8
:030128000203438C
:03012C00020B04BF
:03013000020B2C93
:0301340002032E95
:030138000203308F
:03013C0002033487
:0301400002033F78
:030144000201B8FD
:03014800020AD2D6
:03014C00020AD3D1
:03015000020AD4CC
:03015400020B009B
:03015800020B0196
:03015C00020B0291
:0301600002034F48
:030164000201B8DD
:030168000201B8D9
:03016C000201B8D5
:0301700002034146
:030174000203443F
:0301780002034639
:03017C0002034833
:0301800002034532
:030184000203472C
:0301880002034926
:03018C0002034B20
:0301900002033631
:030194000203392A
:0301980002033C23
:03019C0002033E1D
:0301A00002033720
:0301A40002033A19
:0301A80002033D12
:0301AC000203400B
:0301B00002033215
:0301B400020B1F1C
:0101B8003214
:01032E00329C
:01032F00329B
:01033000329A
:010331003299
:010332003298
:010333003297
:010334003296
:010335003295
:010336003294
:010337003293
:200204007800E84400600A790075923EE4F309D8FC7800E84400600C7900903E00E4F0A38C
:04022400D8FCD9FA2F
:010338003292
:010339003291
:01033A003290
:01033B00328F
:01033C00328E
:01033D00328D
:01033E00328C
:01033F00328B
:01034000328A
:010341003289
:010342003288
:010343003287
:010344003286
:010345003285
:010346003284
:010347003283
:010348003282
:010349003281
:01034A003280
:01034B00327F
:01034C00327E
:01034D00327D
:01034E00327C
:01034F00327B
:01035000327A
:0D01CF00758121120C1AE58260030200A95F
:20035100AF82750900750A00D2E890E668E043E008F090E65CE043E001F090E65D7401F0CD
:20037100D2AF90E680E020E10890E680E043E002F0EF600E90E680E043E008F090000A1227
:200391000BF690E680E053E0F7F022AF82BF00028037BF01028036BF02028039BF04028057
:2003B10038BF06028037BF08028036BF80028019BF8102801CBF8202801BBF8402801ABFC3
:2003D10086028019BF881E801890E6A02290E6A12290E6A22290E6A32290E6A42290E6A5B1
:2003F1002290E6A62290000022C021C0E0C0F0C082C083C007C006C005C004C003C002C0C9
:2004110001C000C0D075D000C08675860090E6B8E0FF90E6B9E0FEE4BF800104FD6014BE83
:20043100061190E6BAE0FBA3E0F5828B13120B2002064CEF7025BE092290E6BAE0F582125A
:200451000C1EE582600990E6A07480F002064C90E6A07401F07481F002064CED6009BE0873
:2004710006120B5102064C8F04BC012CBE0B2990E6BCE0FC90E6BAE0F5128C82120B06E5FA
:2004910082600990E6A07480F002064C90E6A07401F07481F002064CE4BF810104FC600FCA
:2004B100BE0A0C90E6BCE0F582120B3702064CEF7031BE032E90E6BAE0FAA3E0FBBA010F55
:2004D100BB000C75090190E6A07480F002064CBA0205BB0002800302064C90E6A07480F028
:2004F10002064CED602FEE702CAD08E50925E0FB420590E740EDF090E741E4F090E6B50458
:20051100F090E68AE4F090E68B7402F090E6A07480F002064CEC6025EE702290E740E4F0D5
:2005310090E741F090E6B504F090E68AE4F090E68B7402F090E6A07480F002064CBF020297
:2005510080030205F9E4BE030104FD7008BE010280030205F990E6BAE0FBA3E0FC4B60036C
:2005710002064C90E6BCE0F582C00512039CAB82AC83D005EB4C700302064CED60188B8276
:200591008C83E0FD4305018B828C83EDF090E6A07480F002064C90E6BCE0F582C004C003BE
:2005B100120B2DE582D003D004700302064C8B828C83E0FD5305FE8B828C83EDF090E6BC91
:2005D100E0FCA3E08C0353030F530480E423CCC423541F6CCC541FCC6CCCFD90E683EC4BD7
:2005F100F0E043E020F08053BF824AEE704790E6BCE0F58212039CAE82AF838E048F05EE34
:200611004F60388C828D83E05401FCB40100B39200E433FF90E740F090E741E4F090E6B525
:2006310004F090E68AE4F090E68B7402F090E6A07480F0800690E6B812022B5391EF90E644
:200651005D7401F0D086D0D0D000D001D002D003D004D005D006D007D083D082D0F0D0E020
:20067100D0210200ACAE82AF837401B50B27E50C70238E828F83E493FCA3E493FD8C148DAF
:20069100158C828D83E493F51675170090E000120AD50209A47406B50B36E50C70328E82E5
:2006B1008F83A3A3E493FCA3E493FD4C700A90E6A07401F07481F0228C148D158C828D839F
:2006D100E493F51675170090E000120AD50209A47402B50B0280030207E78E828F83A3A3D8
:2006F100A3A3E493FDC3E50C9D40030207E78E828F83A3A3A3A3A3E493FCA3E493FDE50CDF
:2007110075F002A42CF582ED35F0F583E493FCA3E493FD74092CFAE43DFB8C148D158C82F7
:200731008D83E493F51675170090E000C005C004C003C002120AD5D002D003D004D0058C41
:20075100828D83E4932400FCE434E0FD8C0E8D0F8A108B11851082851183E493F8A3E49345
:20077100F98814891588828983E493F516751700850E82850F83C005C004C003C002120ABB
:20079100D5D002D003D004D005851082851183E493F8A3E493F988828983E4932CFCE43D9D
:2007B100FD74022AFAE43BFB8A828B83E493F8A3E49348709790E002E0FAA3E04A60030207
:2007D10009A4ECC39400FCED94E0FD90E002ECF0EDA3F00209A47403B50B0474018001E42C
:2007F100FD601DE50C70197514B575150C900CB5E493F51675170090E000120AD50209A4B1
:20081100ED70030208B6AC0C7D00EC24FFFAED34FFFB74072EF582E43FF583E493F87900AB
:20083100C3EA98EB648089F063F08095F0507674082EF582E43FF583E493FAA3E493FB1C9E
:20085100BCFF011DEC2CFCED33FDEC2AF582ED3BF583E493FCA3E493FD90E0007402F09060
:20087100E00104F074012401FAE434E0FB8C828D83E493F970030209A40CBC00010D8A8279
:200891008B83E9F074012AF8E43BF988828983E4F00428FAE439FB90E000E0F9090990E0BE
:2008B10000E9F080C8740FB50B02800302099AE50C600302099A90E0007405F090E00174E2
:2008D1000FF0740A2EFCE43FFD8C828D83E49390E004F090E000E02400FAE434E0FB740B67
:2008F1002EF582E43FF583E493FEA3E493FF750D008C828D83E493F8C3E50D985056C00453
:20091100C0058A108B118E148F158E048F058C828D83E493F516751700851082851183C043
:2009310007C006C005C004C003C002120AD5D002D003D004D005D006D0078C828D83E4934A
:200951002AFAE43BFB74022EFEE43FFF050DD005D004809DEAC39400FAEB94E0FB90E002A5
:20097100EAF0EBA3F07E007FE090E6B5E4F090E68AEBF090E68BEAF090E6B3EFF090E6B44A
:20099100EEF090E6A07480F02290E6A07401F07481F0227E007FE090E6B57401F090E6B334
:2009B100EFF090E6B4EEF090E6A07480F022AE82AF83A3A3A3A3A3E493FCA3E493FD740490
:2009D1002EFEE43FFF7516008E828F83E493FAC3E5169A400122E51675F002A42CF582ED49
:2009F10035F0F583E493F517A3E493F51874092517F8E43518FA751A00851782851883A353
:200A1100A3A3A3A3E493B50A028003020ACD880189828A83E493F8A3E493FB88828B83A3C5
:200A3100E493FBBB043789828A83E493F51BA3E493F51C851B82851C83A3A3E493B5141097
:200A5100851B82851C83A3A3A3E493B515028005751900800375190185191A8048BB054569
:200A7100E51A6041C004C00589828A83E493F8A3E493FB88828B83A3A3E493FB740F5BF8FA
:200A9100530380E423CBC423541F6BCB541FCB6BCB30E40244E090E683EB48F0E043E02020
:200AB100F0D005D004740229F9E43AFA89828A83E493F8A3E493486003020A21051602093D
:010AD100D94B
:040CB5000403090427
:010AD20032F1
:010AD30032F0
:010AD40032EF
:200AD500AA82AB83AC14AD15AE16AF17EE60010FEF601775AF078A9B8B9A8C9E8D9D90E698
:0B0AF5007CE090E67BF0DEF6DFF422F0
:010B000032C2
:010B010032C1
:010B020032C0
:010B030032BF
:010B040032BE
:010B050032BD
:190B0600AF82E512700F8F14851215900C7C1209BF7582012275820022BB
:2000AC00C000A88118C0D0B6001B18B668004015B68F005010C0E0E65407B406005004E6CD
:0A00CC0054F8F6D0E0D0D0D0003296
:010B1F0032A3
:0C0B200085820B85130C900C7C0206767D
:010B2C003296
:0A0B2D0090E6A07480F075820122AA
:1A0B370090E740E4F090E6B504F090E68AE4F090E68B04F090E6A003F02206
:1C0B510090E740E50AF090E6B57401F090E68AE4F090E68B04F090E6A003F0226E
:200B6D00E583700BE58224FA400122B4001122E5826003D5E0FD0075E0FED583F674F9D557
:200B8D00E0FD22C007C006C001C000AE82AF83EE2EF8EF33F9EE28FEEF39FF90E600E0F821
:200BAD00794C20E416C3EF13CE13CEFF795AE820E309C3EF13CE13CEFF7963E58124FAF844
:200BCD00E926C313C313F9C3EE99F582EF9400F583D000D001D006D007500122020B6D74E9
:200BED0011C0E0120B90158122C007C006AE82AF837411C0E0EE4F600D1EBEFF011F900386
:0D0C0D00E8120B9080EF1581D006D0072271
:040C1A0075820022BD
:1E0C1E00E582FF6003BF01128F0A7514FF7515FF900C7C1209BF75820122758200224E
:00000001FF
